{
  "contractName": "NFTMarket",
  "abi": [
    {
      "inputs": [],
      "stateMutability": "nonpayable",
      "type": "constructor"
    },
    {
      "anonymous": false,
      "inputs": [
        {
          "indexed": true,
          "internalType": "uint256",
          "name": "itemId",
          "type": "uint256"
        },
        {
          "indexed": true,
          "internalType": "address",
          "name": "NFTContract",
          "type": "address"
        },
        {
          "indexed": true,
          "internalType": "uint256",
          "name": "tokenId",
          "type": "uint256"
        },
        {
          "indexed": false,
          "internalType": "address",
          "name": "seller",
          "type": "address"
        },
        {
          "indexed": false,
          "internalType": "address",
          "name": "owner",
          "type": "address"
        },
        {
          "indexed": false,
          "internalType": "uint256",
          "name": "price",
          "type": "uint256"
        },
        {
          "indexed": false,
          "internalType": "bool",
          "name": "sold",
          "type": "bool"
        }
      ],
      "name": "MarketItemCreated",
      "type": "event"
    },
    {
      "inputs": [],
      "name": "getListingPrice",
      "outputs": [
        {
          "internalType": "uint256",
          "name": "",
          "type": "uint256"
        }
      ],
      "stateMutability": "view",
      "type": "function",
      "constant": true
    },
    {
      "inputs": [],
      "name": "getOwner",
      "outputs": [
        {
          "internalType": "address",
          "name": "",
          "type": "address"
        }
      ],
      "stateMutability": "view",
      "type": "function",
      "constant": true
    },
    {
      "inputs": [
        {
          "internalType": "uint256",
          "name": "id",
          "type": "uint256"
        }
      ],
      "name": "getItems",
      "outputs": [
        {
          "components": [
            {
              "internalType": "uint256",
              "name": "itemId",
              "type": "uint256"
            },
            {
              "internalType": "uint256",
              "name": "tokenId",
              "type": "uint256"
            },
            {
              "internalType": "uint256",
              "name": "price",
              "type": "uint256"
            },
            {
              "internalType": "address",
              "name": "NFTContract",
              "type": "address"
            },
            {
              "internalType": "address payable",
              "name": "seller",
              "type": "address"
            },
            {
              "internalType": "address payable",
              "name": "owner",
              "type": "address"
            },
            {
              "internalType": "string",
              "name": "itemName",
              "type": "string"
            },
            {
              "internalType": "string",
              "name": "itemDescription",
              "type": "string"
            },
            {
              "internalType": "string",
              "name": "tokenURI",
              "type": "string"
            },
            {
              "internalType": "bool",
              "name": "sold",
              "type": "bool"
            }
          ],
          "internalType": "struct NFTMarket.MarketItem",
          "name": "",
          "type": "tuple"
        }
      ],
      "stateMutability": "view",
      "type": "function",
      "constant": true
    },
    {
      "inputs": [
        {
          "internalType": "address",
          "name": "NFTContract",
          "type": "address"
        },
        {
          "internalType": "uint256",
          "name": "tokenId",
          "type": "uint256"
        },
        {
          "internalType": "uint256",
          "name": "price",
          "type": "uint256"
        },
        {
          "internalType": "string",
          "name": "name",
          "type": "string"
        },
        {
          "internalType": "string",
          "name": "description",
          "type": "string"
        },
        {
          "internalType": "string",
          "name": "tokenURI",
          "type": "string"
        }
      ],
      "name": "listItemInMarket",
      "outputs": [],
      "stateMutability": "payable",
      "type": "function",
      "payable": true
    },
    {
      "inputs": [
        {
          "internalType": "address",
          "name": "NFTContract",
          "type": "address"
        },
        {
          "internalType": "uint256",
          "name": "itemId",
          "type": "uint256"
        }
      ],
      "name": "sellItem",
      "outputs": [],
      "stateMutability": "payable",
      "type": "function",
      "payable": true
    },
    {
      "inputs": [],
      "name": "showMarketItems",
      "outputs": [
        {
          "components": [
            {
              "internalType": "uint256",
              "name": "itemId",
              "type": "uint256"
            },
            {
              "internalType": "uint256",
              "name": "tokenId",
              "type": "uint256"
            },
            {
              "internalType": "uint256",
              "name": "price",
              "type": "uint256"
            },
            {
              "internalType": "address",
              "name": "NFTContract",
              "type": "address"
            },
            {
              "internalType": "address payable",
              "name": "seller",
              "type": "address"
            },
            {
              "internalType": "address payable",
              "name": "owner",
              "type": "address"
            },
            {
              "internalType": "string",
              "name": "itemName",
              "type": "string"
            },
            {
              "internalType": "string",
              "name": "itemDescription",
              "type": "string"
            },
            {
              "internalType": "string",
              "name": "tokenURI",
              "type": "string"
            },
            {
              "internalType": "bool",
              "name": "sold",
              "type": "bool"
            }
          ],
          "internalType": "struct NFTMarket.MarketItem[]",
          "name": "",
          "type": "tuple[]"
        }
      ],
      "stateMutability": "view",
      "type": "function",
      "constant": true
    },
    {
      "inputs": [],
      "name": "showUserItems",
      "outputs": [
        {
          "components": [
            {
              "internalType": "uint256",
              "name": "itemId",
              "type": "uint256"
            },
            {
              "internalType": "uint256",
              "name": "tokenId",
              "type": "uint256"
            },
            {
              "internalType": "uint256",
              "name": "price",
              "type": "uint256"
            },
            {
              "internalType": "address",
              "name": "NFTContract",
              "type": "address"
            },
            {
              "internalType": "address payable",
              "name": "seller",
              "type": "address"
            },
            {
              "internalType": "address payable",
              "name": "owner",
              "type": "address"
            },
            {
              "internalType": "string",
              "name": "itemName",
              "type": "string"
            },
            {
              "internalType": "string",
              "name": "itemDescription",
              "type": "string"
            },
            {
              "internalType": "string",
              "name": "tokenURI",
              "type": "string"
            },
            {
              "internalType": "bool",
              "name": "sold",
              "type": "bool"
            }
          ],
          "internalType": "struct NFTMarket.MarketItem[]",
          "name": "",
          "type": "tuple[]"
        }
      ],
      "stateMutability": "view",
      "type": "function",
      "constant": true
    }
  ],
  "bytecode": "0x6080604052662386f26fc1000060045534801561001b57600080fd5b50600160008190555061003261007760201b60201c565b600360006101000a81548173ffffffffffffffffffffffffffffffffffffffff021916908373ffffffffffffffffffffffffffffffffffffffff16021790555061007f565b600033905090565b6124fb8061008e6000396000f3fe6080604052600436106100705760003560e01c806337a8af731161004e57806337a8af73146100e7578063796c5e9414610103578063893d20e814610140578063e6a101521461016b57610070565b806304a6ee5e14610075578063096c5e1a146100a057806312e85585146100bc575b600080fd5b34801561008157600080fd5b5061008a610196565b6040516100979190611aca565b60405180910390f35b6100ba60048036038101906100b59190611b58565b610693565b005b3480156100c857600080fd5b506100d16109e6565b6040516100de9190611ba7565b60405180910390f35b61010160048036038101906100fc9190611cf7565b6109f0565b005b34801561010f57600080fd5b5061012a60048036038101906101259190611dd8565b610dd7565b6040516101379190611eed565b60405180910390f35b34801561014c57600080fd5b506101556110f6565b6040516101629190611f1e565b60405180910390f35b34801561017757600080fd5b50610180611120565b60405161018d9190611aca565b60405180910390f35b606060006101a46001611597565b905060006101b26002611597565b826101bd9190611f68565b90506000808267ffffffffffffffff8111156101dc576101db611bcc565b5b60405190808252806020026020018201604052801561021557816020015b6102026116b7565b8152602001906001900390816101fa5790505b50905060005b848110156106885761022b6115a5565b73ffffffffffffffffffffffffffffffffffffffff16600560006001846102529190611f9c565b815260200190815260200160002060050160009054906101000a900473ffffffffffffffffffffffffffffffffffffffff1673ffffffffffffffffffffffffffffffffffffffff16148061031a57506102a96115a5565b73ffffffffffffffffffffffffffffffffffffffff16600560006001846102d09190611f9c565b815260200190815260200160002060040160009054906101000a900473ffffffffffffffffffffffffffffffffffffffff1673ffffffffffffffffffffffffffffffffffffffff16145b1561067557600060018261032e9190611f9c565b9050600060056000838152602001908152602001600020905080604051806101400160405290816000820154815260200160018201548152602001600282015481526020016003820160009054906101000a900473ffffffffffffffffffffffffffffffffffffffff1673ffffffffffffffffffffffffffffffffffffffff1673ffffffffffffffffffffffffffffffffffffffff1681526020016004820160009054906101000a900473ffffffffffffffffffffffffffffffffffffffff1673ffffffffffffffffffffffffffffffffffffffff1673ffffffffffffffffffffffffffffffffffffffff1681526020016005820160009054906101000a900473ffffffffffffffffffffffffffffffffffffffff1673ffffffffffffffffffffffffffffffffffffffff1673ffffffffffffffffffffffffffffffffffffffff16815260200160068201805461048490612021565b80601f01602080910402602001604051908101604052809291908181526020018280546104b090612021565b80156104fd5780601f106104d2576101008083540402835291602001916104fd565b820191906000526020600020905b8154815290600101906020018083116104e057829003601f168201915b5050505050815260200160078201805461051690612021565b80601f016020809104026020016040519081016040528092919081815260200182805461054290612021565b801561058f5780601f106105645761010080835404028352916020019161058f565b820191906000526020600020905b81548152906001019060200180831161057257829003601f168201915b505050505081526020016008820180546105a890612021565b80601f01602080910402602001604051908101604052809291908181526020018280546105d490612021565b80156106215780601f106105f657610100808354040283529160200191610621565b820191906000526020600020905b81548152906001019060200180831161060457829003601f168201915b505050505081526020016009820160009054906101000a900460ff16151515158152505084868151811061065857610657612052565b5b60200260200101819052506001856106709190611f9c565b945050505b808061068090612081565b91505061021b565b508094505050505090565b6002600054036106d8576040517f08c379a00000000000000000000000000000000000000000000000000000000081526004016106cf90612126565b60405180910390fd5b6002600081905550600060056000838152602001908152602001600020600201549050600060056000848152602001908152602001600020600101549050813414610758576040517f08c379a000000000000000000000000000000000000000000000000000000000815260040161074f90612192565b60405180910390fd5b6005600084815260200190815260200160002060040160009054906101000a900473ffffffffffffffffffffffffffffffffffffffff1673ffffffffffffffffffffffffffffffffffffffff166107ad6115a5565b73ffffffffffffffffffffffffffffffffffffffff1603610803576040517f08c379a00000000000000000000000000000000000000000000000000000000081526004016107fa906121fe565b60405180910390fd5b6108436005600085815260200190815260200160002060040160009054906101000a900473ffffffffffffffffffffffffffffffffffffffff16346115ad565b8373ffffffffffffffffffffffffffffffffffffffff166323b872dd306108686115a5565b846040518463ffffffff1660e01b81526004016108879392919061221e565b600060405180830381600087803b1580156108a157600080fd5b505af11580156108b5573d6000803e3d6000fd5b505050506108c16115a5565b6005600085815260200190815260200160002060050160006101000a81548173ffffffffffffffffffffffffffffffffffffffff021916908373ffffffffffffffffffffffffffffffffffffffff16021790555061091d6115a5565b6005600085815260200190815260200160002060040160006101000a81548173ffffffffffffffffffffffffffffffffffffffff021916908373ffffffffffffffffffffffffffffffffffffffff16021790555060016005600085815260200190815260200160002060090160006101000a81548160ff0219169083151502179055506109aa60026116a1565b6109d8600360009054906101000a900473ffffffffffffffffffffffffffffffffffffffff166004546115ad565b505060016000819055505050565b6000600454905090565b600260005403610a35576040517f08c379a0000000000000000000000000000000000000000000000000000000008152600401610a2c90612126565b60405180910390fd5b600260008190555060008411610a80576040517f08c379a0000000000000000000000000000000000000000000000000000000008152600401610a77906122a1565b60405180910390fd5b6004543414610ac4576040517f08c379a0000000000000000000000000000000000000000000000000000000008152600401610abb9061230d565b60405180910390fd5b610ace60016116a1565b6000610ada6001611597565b90506040518061014001604052808281526020018781526020018681526020018873ffffffffffffffffffffffffffffffffffffffff168152602001610b1e6115a5565b73ffffffffffffffffffffffffffffffffffffffff168152602001600073ffffffffffffffffffffffffffffffffffffffff168152602001858152602001848152602001838152602001600015158152506005600083815260200190815260200160002060008201518160000155602082015181600101556040820151816002015560608201518160030160006101000a81548173ffffffffffffffffffffffffffffffffffffffff021916908373ffffffffffffffffffffffffffffffffffffffff16021790555060808201518160040160006101000a81548173ffffffffffffffffffffffffffffffffffffffff021916908373ffffffffffffffffffffffffffffffffffffffff16021790555060a08201518160050160006101000a81548173ffffffffffffffffffffffffffffffffffffffff021916908373ffffffffffffffffffffffffffffffffffffffff16021790555060c0820151816006019080519060200190610c9192919061174e565b5060e0820151816007019080519060200190610cae92919061174e565b50610100820151816008019080519060200190610ccc92919061174e565b506101208201518160090160006101000a81548160ff0219169083151502179055509050508673ffffffffffffffffffffffffffffffffffffffff166323b872dd610d156115a5565b30896040518463ffffffff1660e01b8152600401610d359392919061221e565b600060405180830381600087803b158015610d4f57600080fd5b505af1158015610d63573d6000803e3d6000fd5b50505050858773ffffffffffffffffffffffffffffffffffffffff16827f045dfa01dcba2b36aba1d3dc4a874f4b0c5d2fbeb8d2c4b34a7d88c8d8f929d1610da96115a5565b60008a6000604051610dbe949392919061233c565b60405180910390a4506001600081905550505050505050565b610ddf6116b7565b60056000838152602001908152602001600020604051806101400160405290816000820154815260200160018201548152602001600282015481526020016003820160009054906101000a900473ffffffffffffffffffffffffffffffffffffffff1673ffffffffffffffffffffffffffffffffffffffff1673ffffffffffffffffffffffffffffffffffffffff1681526020016004820160009054906101000a900473ffffffffffffffffffffffffffffffffffffffff1673ffffffffffffffffffffffffffffffffffffffff1673ffffffffffffffffffffffffffffffffffffffff1681526020016005820160009054906101000a900473ffffffffffffffffffffffffffffffffffffffff1673ffffffffffffffffffffffffffffffffffffffff1673ffffffffffffffffffffffffffffffffffffffff168152602001600682018054610f2e90612021565b80601f0160208091040260200160405190810160405280929190818152602001828054610f5a90612021565b8015610fa75780601f10610f7c57610100808354040283529160200191610fa7565b820191906000526020600020905b815481529060010190602001808311610f8a57829003601f168201915b50505050508152602001600782018054610fc090612021565b80601f0160208091040260200160405190810160405280929190818152602001828054610fec90612021565b80156110395780601f1061100e57610100808354040283529160200191611039565b820191906000526020600020905b81548152906001019060200180831161101c57829003601f168201915b5050505050815260200160088201805461105290612021565b80601f016020809104026020016040519081016040528092919081815260200182805461107e90612021565b80156110cb5780601f106110a0576101008083540402835291602001916110cb565b820191906000526020600020905b8154815290600101906020018083116110ae57829003601f168201915b505050505081526020016009820160009054906101000a900460ff1615151515815250509050919050565b6000600360009054906101000a900473ffffffffffffffffffffffffffffffffffffffff16905090565b6060600061112e6001611597565b9050600061113c6002611597565b826111479190611f68565b90506000808267ffffffffffffffff81111561116657611165611bcc565b5b60405190808252806020026020018201604052801561119f57816020015b61118c6116b7565b8152602001906001900390816111845790505b50905060005b8481101561158c57600073ffffffffffffffffffffffffffffffffffffffff16600560006001846111d69190611f9c565b815260200190815260200160002060050160009054906101000a900473ffffffffffffffffffffffffffffffffffffffff1673ffffffffffffffffffffffffffffffffffffffff16036115795760006001826112329190611f9c565b9050600060056000838152602001908152602001600020905080604051806101400160405290816000820154815260200160018201548152602001600282015481526020016003820160009054906101000a900473ffffffffffffffffffffffffffffffffffffffff1673ffffffffffffffffffffffffffffffffffffffff1673ffffffffffffffffffffffffffffffffffffffff1681526020016004820160009054906101000a900473ffffffffffffffffffffffffffffffffffffffff1673ffffffffffffffffffffffffffffffffffffffff1673ffffffffffffffffffffffffffffffffffffffff1681526020016005820160009054906101000a900473ffffffffffffffffffffffffffffffffffffffff1673ffffffffffffffffffffffffffffffffffffffff1673ffffffffffffffffffffffffffffffffffffffff16815260200160068201805461138890612021565b80601f01602080910402602001604051908101604052809291908181526020018280546113b490612021565b80156114015780601f106113d657610100808354040283529160200191611401565b820191906000526020600020905b8154815290600101906020018083116113e457829003601f168201915b5050505050815260200160078201805461141a90612021565b80601f016020809104026020016040519081016040528092919081815260200182805461144690612021565b80156114935780601f1061146857610100808354040283529160200191611493565b820191906000526020600020905b81548152906001019060200180831161147657829003601f168201915b505050505081526020016008820180546114ac90612021565b80601f01602080910402602001604051908101604052809291908181526020018280546114d890612021565b80156115255780601f106114fa57610100808354040283529160200191611525565b820191906000526020600020905b81548152906001019060200180831161150857829003601f168201915b505050505081526020016009820160009054906101000a900460ff16151515158152505084868151811061155c5761155b612052565b5b60200260200101819052506001856115749190611f9c565b945050505b808061158490612081565b9150506111a5565b508094505050505090565b600081600001549050919050565b600033905090565b804710156115f0576040517f08c379a00000000000000000000000000000000000000000000000000000000081526004016115e7906123cd565b60405180910390fd5b60008273ffffffffffffffffffffffffffffffffffffffff16826040516116169061241e565b60006040518083038185875af1925050503d8060008114611653576040519150601f19603f3d011682016040523d82523d6000602084013e611658565b606091505b505090508061169c576040517f08c379a0000000000000000000000000000000000000000000000000000000008152600401611693906124a5565b60405180910390fd5b505050565b6001816000016000828254019250508190555050565b604051806101400160405280600081526020016000815260200160008152602001600073ffffffffffffffffffffffffffffffffffffffff168152602001600073ffffffffffffffffffffffffffffffffffffffff168152602001600073ffffffffffffffffffffffffffffffffffffffff1681526020016060815260200160608152602001606081526020016000151581525090565b82805461175a90612021565b90600052602060002090601f01602090048101928261177c57600085556117c3565b82601f1061179557805160ff19168380011785556117c3565b828001600101855582156117c3579182015b828111156117c25782518255916020019190600101906117a7565b5b5090506117d091906117d4565b5090565b5b808211156117ed5760008160009055506001016117d5565b5090565b600081519050919050565b600082825260208201905092915050565b6000819050602082019050919050565b6000819050919050565b6118308161181d565b82525050565b600073ffffffffffffffffffffffffffffffffffffffff82169050919050565b600061186182611836565b9050919050565b61187181611856565b82525050565b600061188282611836565b9050919050565b61189281611877565b82525050565b600081519050919050565b600082825260208201905092915050565b60005b838110156118d25780820151818401526020810190506118b7565b838111156118e1576000848401525b50505050565b6000601f19601f8301169050919050565b600061190382611898565b61190d81856118a3565b935061191d8185602086016118b4565b611926816118e7565b840191505092915050565b60008115159050919050565b61194681611931565b82525050565b6000610140830160008301516119656000860182611827565b5060208301516119786020860182611827565b50604083015161198b6040860182611827565b50606083015161199e6060860182611868565b5060808301516119b16080860182611889565b5060a08301516119c460a0860182611889565b5060c083015184820360c08601526119dc82826118f8565b91505060e083015184820360e08601526119f682826118f8565b915050610100830151848203610100860152611a1282826118f8565b915050610120830151611a2961012086018261193d565b508091505092915050565b6000611a40838361194c565b905092915050565b6000602082019050919050565b6000611a60826117f1565b611a6a81856117fc565b935083602082028501611a7c8561180d565b8060005b85811015611ab85784840389528151611a998582611a34565b9450611aa483611a48565b925060208a01995050600181019050611a80565b50829750879550505050505092915050565b60006020820190508181036000830152611ae48184611a55565b905092915050565b6000604051905090565b600080fd5b600080fd5b611b0981611856565b8114611b1457600080fd5b50565b600081359050611b2681611b00565b92915050565b611b358161181d565b8114611b4057600080fd5b50565b600081359050611b5281611b2c565b92915050565b60008060408385031215611b6f57611b6e611af6565b5b6000611b7d85828601611b17565b9250506020611b8e85828601611b43565b9150509250929050565b611ba18161181d565b82525050565b6000602082019050611bbc6000830184611b98565b92915050565b600080fd5b600080fd5b7f4e487b7100000000000000000000000000000000000000000000000000000000600052604160045260246000fd5b611c04826118e7565b810181811067ffffffffffffffff82111715611c2357611c22611bcc565b5b80604052505050565b6000611c36611aec565b9050611c428282611bfb565b919050565b600067ffffffffffffffff821115611c6257611c61611bcc565b5b611c6b826118e7565b9050602081019050919050565b82818337600083830152505050565b6000611c9a611c9584611c47565b611c2c565b905082815260208101848484011115611cb657611cb5611bc7565b5b611cc1848285611c78565b509392505050565b600082601f830112611cde57611cdd611bc2565b5b8135611cee848260208601611c87565b91505092915050565b60008060008060008060c08789031215611d1457611d13611af6565b5b6000611d2289828a01611b17565b9650506020611d3389828a01611b43565b9550506040611d4489828a01611b43565b945050606087013567ffffffffffffffff811115611d6557611d64611afb565b5b611d7189828a01611cc9565b935050608087013567ffffffffffffffff811115611d9257611d91611afb565b5b611d9e89828a01611cc9565b92505060a087013567ffffffffffffffff811115611dbf57611dbe611afb565b5b611dcb89828a01611cc9565b9150509295509295509295565b600060208284031215611dee57611ded611af6565b5b6000611dfc84828501611b43565b91505092915050565b600061014083016000830151611e1e6000860182611827565b506020830151611e316020860182611827565b506040830151611e446040860182611827565b506060830151611e576060860182611868565b506080830151611e6a6080860182611889565b5060a0830151611e7d60a0860182611889565b5060c083015184820360c0860152611e9582826118f8565b91505060e083015184820360e0860152611eaf82826118f8565b915050610100830151848203610100860152611ecb82826118f8565b915050610120830151611ee261012086018261193d565b508091505092915050565b60006020820190508181036000830152611f078184611e05565b905092915050565b611f1881611856565b82525050565b6000602082019050611f336000830184611f0f565b92915050565b7f4e487b7100000000000000000000000000000000000000000000000000000000600052601160045260246000fd5b6000611f738261181d565b9150611f7e8361181d565b925082821015611f9157611f90611f39565b5b828203905092915050565b6000611fa78261181d565b9150611fb28361181d565b9250827fffffffffffffffffffffffffffffffffffffffffffffffffffffffffffffffff03821115611fe757611fe6611f39565b5b828201905092915050565b7f4e487b7100000000000000000000000000000000000000000000000000000000600052602260045260246000fd5b6000600282049050600182168061203957607f821691505b60208210810361204c5761204b611ff2565b5b50919050565b7f4e487b7100000000000000000000000000000000000000000000000000000000600052603260045260246000fd5b600061208c8261181d565b91507fffffffffffffffffffffffffffffffffffffffffffffffffffffffffffffffff82036120be576120bd611f39565b5b600182019050919050565b600082825260208201905092915050565b7f5265656e7472616e637947756172643a207265656e7472616e742063616c6c00600082015250565b6000612110601f836120c9565b915061211b826120da565b602082019050919050565b6000602082019050818103600083015261213f81612103565b9050919050565b7f496e636f7272656374207061796d656e74212000000000000000000000000000600082015250565b600061217c6013836120c9565b915061218782612146565b602082019050919050565b600060208201905081810360008301526121ab8161216f565b9050919050565b7f796f752063616e27742062757920796f7572206f776e204e4654202120000000600082015250565b60006121e8601d836120c9565b91506121f3826121b2565b602082019050919050565b60006020820190508181036000830152612217816121db565b9050919050565b60006060820190506122336000830186611f0f565b6122406020830185611f0f565b61224d6040830184611b98565b949350505050565b7f7072696365206d7573742062652067726561746572207468616e203021200000600082015250565b600061228b601e836120c9565b915061229682612255565b602082019050919050565b600060208201905081810360008301526122ba8161227e565b9050919050565b7f506c656173652070617920746865206c697374696e6720707269636521200000600082015250565b60006122f7601e836120c9565b9150612302826122c1565b602082019050919050565b60006020820190508181036000830152612326816122ea565b9050919050565b61233681611931565b82525050565b60006080820190506123516000830187611f0f565b61235e6020830186611f0f565b61236b6040830185611b98565b612378606083018461232d565b95945050505050565b7f416464726573733a20696e73756666696369656e742062616c616e6365000000600082015250565b60006123b7601d836120c9565b91506123c282612381565b602082019050919050565b600060208201905081810360008301526123e6816123aa565b9050919050565b600081905092915050565b50565b60006124086000836123ed565b9150612413826123f8565b600082019050919050565b6000612429826123fb565b9150819050919050565b7f416464726573733a20756e61626c6520746f2073656e642076616c75652c207260008201527f6563697069656e74206d61792068617665207265766572746564000000000000602082015250565b600061248f603a836120c9565b915061249a82612433565b604082019050919050565b600060208201905081810360008301526124be81612482565b905091905056fea26469706673582212209370908985a01f8be00e2b2a71f50dba90e94b5e080acb490314fdbb1b32532964736f6c634300080d0033",
  "immutableReferences": {},
  "source": "// this contract is for NFT market\r\n// author : Abolfazl Iraninasab\r\n\r\n// SPDX-License-Identifier: MIT\r\npragma solidity >=0.4.22 <0.9.0;\r\n\r\nimport \"@openzeppelin/contracts/utils/Counters.sol\";\r\nimport \"@openzeppelin/contracts/security/ReentrancyGuard.sol\";\r\nimport \"@openzeppelin/contracts/token/ERC721/ERC721.sol\";\r\nimport \"@openzeppelin/contracts/utils/Context.sol\";\r\nimport \"@openzeppelin/contracts/utils/Address.sol\";\r\n\r\ncontract NFTMarket is ReentrancyGuard, Context {\r\n    using Counters for Counters.Counter;\r\n\r\n    Counters.Counter private _itemIds;\r\n    Counters.Counter private _itemsSold;\r\n\r\n    address private owner;\r\n    uint256 private listingPrice = 0.01 ether;\r\n\r\n    constructor() {\r\n        owner = payable(_msgSender());\r\n    }\r\n\r\n    struct MarketItem {\r\n        uint256 itemId;\r\n        uint256 tokenId;\r\n        uint256 price;\r\n        address NFTContract;\r\n        address payable seller;\r\n        address payable owner;\r\n        string itemName;\r\n        string itemDescription;\r\n        string tokenURI;\r\n        bool sold;\r\n    }\r\n\r\n    event MarketItemCreated(\r\n        uint256 indexed itemId,\r\n        address indexed NFTContract,\r\n        uint256 indexed tokenId,\r\n        address seller,\r\n        address owner,\r\n        uint256 price,\r\n        bool sold\r\n    );\r\n\r\n    mapping(uint256 => MarketItem) private marketItems;\r\n\r\n    function getListingPrice() public view returns (uint256) {\r\n        return listingPrice;\r\n    }\r\n\r\n    function getOwner() public view returns (address) {\r\n        return owner;\r\n    }\r\n\r\n    function getItems(uint256 id) public view returns (MarketItem memory) {\r\n        return marketItems[id];\r\n    }\r\n\r\n    function listItemInMarket(\r\n        address NFTContract,\r\n        uint256 tokenId,\r\n        uint256 price,\r\n        string memory name,\r\n        string memory description,\r\n        string memory tokenURI\r\n    ) public payable nonReentrant {                                                  // protected against reentrancy attacks\r\n        require(price > 0, \"price must be greater than 0! \");\r\n        require(msg.value == listingPrice, \"Please pay the listing price! \");\r\n\r\n        _itemIds.increment();\r\n        uint256 itemId = _itemIds.current();\r\n\r\n        marketItems[itemId] = MarketItem(\r\n            itemId,\r\n            tokenId,\r\n            price,\r\n            NFTContract,\r\n            payable(_msgSender()),\r\n            payable(address(0)),\r\n            name,\r\n            description,\r\n            tokenURI,\r\n            false\r\n        );\r\n\r\n        IERC721(NFTContract).transferFrom(_msgSender(), address(this), tokenId);\r\n\r\n        emit MarketItemCreated(\r\n            itemId,\r\n            NFTContract,\r\n            tokenId,\r\n            _msgSender(),\r\n            address(0),\r\n            price,\r\n            false\r\n        );\r\n    }\r\n\r\n    function sellItem(address NFTContract, uint256 itemId) public payable nonReentrant {       // protected against reentrancy attacks\r\n        uint256 price = marketItems[itemId].price;\r\n        uint256 tokenId = marketItems[itemId].tokenId;\r\n\r\n        require(msg.value == price, \"Incorrect payment! \");\r\n\r\n        require( _msgSender() != marketItems[itemId].seller,\"you can't buy your own NFT ! \");\r\n\r\n        Address.sendValue(marketItems[itemId].seller, msg.value);\r\n        IERC721(NFTContract).transferFrom(address(this), _msgSender(), tokenId);\r\n\r\n        marketItems[itemId].owner = payable(_msgSender());\r\n        marketItems[itemId].seller = payable(_msgSender());\r\n\r\n        marketItems[itemId].sold = true;\r\n        _itemsSold.increment();\r\n        Address.sendValue(payable(owner), listingPrice);\r\n    }\r\n\r\n    function showMarketItems() public view returns (MarketItem[] memory) {\r\n        uint256 itemCount = _itemIds.current();\r\n        uint256 unsoldItems = itemCount - _itemsSold.current();\r\n        uint256 currentIndex = 0;\r\n\r\n        MarketItem[] memory items = new MarketItem[](unsoldItems);\r\n\r\n        for (uint256 i = 0; i < itemCount; i++) {\r\n            if (marketItems[i + 1].owner == address(0)) {\r\n                uint256 currentId = i + 1;\r\n                MarketItem storage currentItem = marketItems[currentId];\r\n                items[currentIndex] = currentItem;\r\n                currentIndex += 1;\r\n            }\r\n        }\r\n        return items;\r\n    }\r\n\r\n    function showUserItems() public view returns (MarketItem[] memory) {\r\n        uint256 itemCount = _itemIds.current();\r\n        uint256 unsoldItems = itemCount - _itemsSold.current();\r\n        uint256 currentIndex = 0;\r\n\r\n        MarketItem[] memory items = new MarketItem[](unsoldItems);\r\n\r\n        for (uint256 i = 0; i < itemCount; i++) {\r\n            if (marketItems[i + 1].owner == _msgSender() || marketItems[i + 1].seller == _msgSender() ) {\r\n                uint256 currentId = i + 1;\r\n                MarketItem storage currentItem = marketItems[currentId];\r\n                items[currentIndex] = currentItem;\r\n                currentIndex += 1;\r\n            }\r\n        }\r\n        return items;\r\n    }\r\n\r\n}\r\n\r\n// finished \r\n",
  "sourcePath": "C:\\Users\\HP\\Documents\\DApp\\NFTMarket\\contract\\contracts\\NFTMarket.sol",
  "compiler": {
    "name": "solc",
    "version": "0.8.13+commit.abaa5c0e.Emscripten.clang"
  },
  "schemaVersion": "3.4.6",
  "updatedAt": "2022-08-17T07:06:34.719Z",
  "networkType": "ethereum",
  "devdoc": {
    "kind": "dev",
    "methods": {},
    "version": 1
  },
  "userdoc": {
    "kind": "user",
    "methods": {},
    "version": 1
  }
}